:020000040800F2
:10000000B0040020DD010008271300085F1200087B
:1000100025130008E9020008D517000800000000B9
:10002000000000000000000000000000251700088C
:10003000DD0300080000000029130008271700084E
:10004000F7010008F7010008F7010008F7010008B0
:10005000F7010008F7010008F7010008F7010008A0
:10006000F7010008F7010008F7010008F701000890
:10007000F7010008F7010008F7010008F701000880
:10008000F7010008F7010008F7010008F701000870
:10009000F7010008F7010008F7010008F701000860
:1000A000F7010008F7010008F7010008F701000850
:1000B000F7010008F7010008F7010008F701000840
:1000C000F7010008F7010008F7010008F701000830
:1000D000F7010008F7010008F7010008F701000820
:1000E000F7010008F7010008F7010008F701000810
:1000F000F7010008F7010008F7010008F701000800
:10010000F7010008F7010008F7010008F7010008EF
:10011000F7010008F7010008F7010008F7010008DF
:10012000F7010008F7010008F7010008F7010008CF
:10013000F7010008F7010008F7010008F7010008BF
:10014000F7010008F7010008F7010008F7010008AF
:10015000F7010008F7010008F7010008F70100089F
:10016000F7010008F7010008F7010008F70100088F
:10017000F7010008F7010008F7010008F70100087F
:10018000F7010008F7010008F7010008F70100086F
:10019000F7010008F7010008F7010008F70100085F
:1001A000F7010008F7010008F7010008F70100084F
:1001B000F7010008F7010008F7010008F70100083F
:1001C000F7010008F7010008DFF80CD000F07AF81A
:1001D0000048004719180008B0040020064880476E
:1001E00006480047FEE7FEE7FEE7FEE7FEE7FEE71C
:1001F000FEE7FEE7FEE7FEE7B9170008C9010008C1
:100200002DE9F05F0546002092469B46884606464B
:10021000814640241BE0284641464746224600F0DE
:1002200041F853465A46C01A914110D31146184618
:10023000224600F028F82D1A67EB01084F462246A7
:100240000120002100F01FF817EB00094E41201E8D
:10025000A4F10104DFDC484631462A464346BDE8A6
:10026000F09FD2B201E000F8012B491EFBD270478B
:100270000022F6E710B513460A4604461946FFF772
:10028000F0FF204610BD202A04DB203A00FA02F1DC
:10029000002070479140C2F1200320FA03F3194374
:1002A00090407047202A04DB203A21FA02F0002116
:1002B000704721FA02F3D040C2F120029140084376
:1002C00019467047064C074D06E0E06840F0010310
:1002D00094E8070098471034AC42F6D3FFF778FF54
:1002E000A4180008C4180008FEE7000070B5BFF3AA
:1002F0004F8FBFF36F8F184800210368174A23F40C
:10030000003303601160BFF34F8FBFF36F8F124A4A
:1003100070321160BFF34F8F016821F480310160AA
:10032000BFF34F8F101F43F6FF7300680B4D24354A
:10033000C0F34E31C0F3C90203EA4114104600BFB6
:1003400044EA80762E60401EFAD2491EF4D2BFF3F2
:100350004F8FBFF36F8F70BD14ED00E050EF00E0E2
:10036000F0B5BFF34F8FBFF36F8F1A4900200860BD
:10037000BFF34F8FBFF36F8F174A116841F40031FD
:100380001160BFF34F8FBFF36F8F13497031086057
:10039000BFF34F8F081F43F6FF7400680D4D1035F3
:1003A000C0F34E31C0F3C90304EA4116184600BF3A
:1003B00046EA80772F60401EFAD2491EF4D2BFF37E
:1003C0004F8F106840F480301060BFF34F8FBFF341
:1003D0006F8FF0BD50EF00E014ED00E070472DE9A5
:1003E000F041876D044600F035F9064694F8350073
:1003F0000025022806D080206065012084F8345052
:10040000BDE8F0812068016821F0160101602068D4
:10041000416921F080014161206C08B9A06C20B1D4
:100420002068016821F0080101602068016821F05E
:10043000010101600CE000F00DF9801B052807D9CF
:1004400020216165032084F8345084F83500D7E713
:1004500020680068C007EED194F85C203F2001219D
:100460009040B86084F8345084F835100020C7E715
:100470002DE9F84F00224FF001094FF0030A4FF029
:100480000F0E00BF0B6809FA02F42340A34270D19B
:100490004D68012D05D0022D03D0112D01D0122D54
:1004A00011D185685700CE680AFA07FC25EA0C05C9
:1004B000BE402E43866045680E79A543C6F30016FC
:1004C00096402E434660C56856008F680AFA06F4C7
:1004D000A543B7402F43C7604D68022D01D0122DB0
:1004E00012D1D5080F694FEA427C00EB8505AB4677
:1004F0002D6A4FEADC6C0EFA0CF807FA0CF725EAC5
:1005000008052F43CBF820700D79076805F0030527
:10051000A743B5403D4305604C68E40074D53D4CAD
:10052000256845F480452560246822F00307960776
:1005300004F480440094384C360F2744D7F8084818
:10054000DFF8D8C00EFA06F5604524EA050401D1AB
:1005500000252EE0324DA84201D1012529E0314D80
:10056000A84201D1022524E02F4DA84202D1032543
:100570001FE049E02D4DA84201D1042519E02C4D82
:10058000A84201D1052514E02A4DA84201D1062533
:100590000FE0294DA84201D107250AE0274DA842C6
:1005A00001D1082505E0264DA84201D1092500E02A
:1005B0000A25B540234E2543C7F808584D683468CE
:1005C000ED0324EA030400D51C431E4D34602D1DA9
:1005D0004E682C68B60324EA030400D51C43194E68
:1005E0002C6008364D683468ED0224EA030400D517
:1005F0001C43144D34600C354E682C68B60224EA56
:10060000030400D51C432C60521C102AFFF43AAF9F
:10061000BDE8F88F4438024000300140000002403D
:100620000004024000080240000C0240001002409A
:100630000014024000180240001C0240002002404A
:1006400000240240003C01400AB181617047090466
:10065000FBE70000014880687047000004000020AC
:1006600002488168027811448160704704000020CC
:10067000032010B500F060F8002000F005F800F04D
:1006800023F8002010BD000070B50D4D04464FF456
:100690007A700C4A29781268B0FBF1F0B2FBF0F0E6
:1006A00000F0CAFD48B9102C07D200222146501E86
:1006B00000F022F800206C6070BD012070BD0000C9
:1006C00004000020100000200A4808B5016841F02D
:1006D00080510160006800F0805000900548001DC6
:1006E000016841F480410160006800F4804000909E
:1006F00008BD0000403802400E4BF0B41B680D46A8
:10070000C3F30223C3F10706042E00D90426191DE2
:10071000072901D2002300E0DB1E012404FA06F1C0
:100720009C40491E2940641E994014402143F0BC5E
:1007300001F051B80CED00E0064900F0070210B5D9
:100740004FF6FF040868044B204040EA022018439B
:10075000086010BD0CED00E00000FA051848F8B57F
:10076000016841F0805101600068164C00F0805033
:100770000090206840F480302060FFF76BFF4FF45A
:100780007A76054605E000BFFFF764FF401BB042E4
:100790000FD86068C003F7D5206840F400302060AF
:1007A000FFF758FF054606E0FFF754FF401BB04235
:1007B00001D90320F8BD60688003F5D50020F8BD9D
:1007C00040380240007000400248016841F48071E6
:1007D0000160704700700040F8B500250446FFF73F
:1007E00039FF064694F84100800736D5002084F88A
:1007F00040002068016849070BD5016821F0040119
:100800000160E06BFFF7EBFD18B1606C40F0040095
:1008100060642068016841F002010160A06C01225F
:10082000022133460090204600F030FF050014D12D
:1008300021680220C8600022A06C2021334600906D
:10084000204600F023FF050007D1206801214269FE
:1008500022F04062426184F841102846F8BD000051
:100860002DE9F84F1E4615468A460446FFF7F2FE6C
:10087000814694F8400001280ED001274FF000086F
:1008800084F8407094F84100012807D05FF002001E
:1008900084F84080BDE8F88F0220FBE74221C4F8CD
:1008A000448084F84110002220214B4620460096C7
:1008B00000F0ECFE0028EBD12168286888622168EE
:1008C000686848622168A868C86220682969026867
:1008D00022F4400242F4800211430160E9684FF0C3
:1008E00000622046CAF82810514600F01EFD012281
:1008F0004B4608212046009600F0C8FE0028C7D1CC
:1009000022680821D16084F84170C1E72DE9F84FD1
:1009100017468B460446FFF79DFE824694F840003A
:1009200001280ED001264FF0000884F8406094F8AA
:100930004100012807D0022584F840802846BDE800
:10094000F88F0220FBE74FF00209C4F8448084F8D6
:1009500041900022202153462046009700F096FE49
:100960000500E9D100225946204600F0DEFCDBF804
:10097000240058B90122534602212046009700F076
:1009800085FE0500D8D12168C1F80C9084F841603B
:10099000D2E70000F8B50446FFF75CFE064624B136
:1009A00094F84100002510B109E00120F8BD84F859
:1009B0004050204600F08CF841F28830A064206856
:1009C0006FF0FF02A168036802EB012223F4F851E3
:1009D00011430160A06C0022202133460090204684
:1009E00000F054FE30BBD4E90767226894F804C0D5
:1009F000E16813683143114E47EA0C6C104F41EA2D
:100A00000C0133404FF0010E194311602168D4E905
:100A10000526B4F810C04B6832433B4043EA0C4310
:100A20001A434A6021680A6842F001020A6065645C
:100A300084F841E084F84050F8BD00002FFFFF002B
:100A4000FEF8E0FF2DE9F843164688460446FFF716
:100A500001FE034694F8400001280ED0012084F8DE
:100A60004000002794F84100012808D05FF00205FB
:100A700084F840702846BDE8F8830220FBE7A06CAC
:100A80008221676484F841100022202100902046D2
:100A900000F0FCFD0500EBD120687268016821F0D0
:100AA000080111430160706808280AD122681021EA
:100AB000306810632068C1602068016841F48011CB
:100AC00001604FF040624146204600F02EFCCFE727
:100AD0002DE9F04186B0044614216846FFF7C8FBB3
:100AE0002B49206888424FD12A48016841F0020111
:100AF0000160006800F0020005902648083801688F
:100B000041F010010160016801F0100105910168D8
:100B100041F002010160016801F0020105910168E4
:100B200041F0080101600068092701AA4FF004089C
:100B300000F00800CDF80080022469460025CDE9C8
:100B400004700326144882E87000FFF791FCCDE999
:100B5000008402AADFF844806946404682E8E0004B
:100B6000FFF786FC4FF4605069468DE8F1000C48B1
:100B7000FFF77EFC0A214020CDE903618DE83100BA
:100B800069464046FFF774FC06B0BDE8F0810000FE
:100B9000001000A03838024000100240000402405B
:100BA000000C02402DE9F84F15460F460446FFF7AA
:100BB00051FD82462068816994F8403000F1200997
:100BC000012B0DD001264FF0000884F8406094F806
:100BD0004120012A06D0022084F84080BDE8F88F29
:100BE0000220FBE7C4F84480BFB3222284F84120EE
:100BF0000269521CA2630269521C62632763426944
:100C000022F0406242F080624261206881610EE021
:100C10000621204600F03AFDE0B999F80000216B6A
:100C20000870206B401C2063A06B401EA063A06B6B
:100C300053464FF0010200950028E9D14FF0020120
:100C4000204600F023FD28B921680220C860204614
:100C5000FFF7C2FD84F84160BEE7FFE7616C012049
:100C600041F008016164B7E72DE9F84F15460F46DA
:100C70000446FFF7EFFC94F84010824620680129F3
:100C800000F120090ED001264FF0000884F84060E2
:100C900094F84110012907D05FF0020084F84080E9
:100CA000BDE8F88F0220FBE7C4F844809FB312210F
:100CB00084F841100169491CE1620169491CA16283
:100CC0006762416921F0406141610EE004212046E4
:100CD00000F0DCFCE0B9606A017889F80010606A15
:100CE000401C6062E06A401EE062E06A53464FF0DA
:100CF000010200950028E9D14FF00201204600F0E2
:100D0000C5FC28B921680220C8602046FFF764FDB1
:100D100084F84160C2E7FFE7616C012041F00801FF
:100D20006164BBE72DE9F04705000F4663D0444EF0
:100D3000306800F00F00B84209D2306820F00F0090
:100D400038433060306800F00F00B84253D1286853
:100D50003C4C810712D5400703D5206840F4E05091
:100D600020602878000703D5206840F460402060A8
:100D7000A968206820F0F000084320602878C007A8
:100D80002AD0304968680839012810D0096802283B
:100D900010D0890700292EDA216821F003010143D0
:100DA0002160FFF757FC804641F288390DE0096861
:100DB0008903EFE78901EDE7FFF74CFCA0EB0801A1
:100DC000494502D90320BDE8F0876868216801F031
:100DD0000C01B1EB800FEFD1306800F00F00B8428A
:100DE0000BD9306820F00F0038433060306800F0D5
:100DF0000F00B84201D00120E5E72878400705D56B
:100E0000E968206820F4E050084320602878000753
:100E100006D52869216821F4604141EAC0002060BC
:100E200000F018F82168084AC1F30311515CC8406A
:100E30000649086006480068FFF726FC0020C2E764
:100E4000003C0240083802409418000810000020BE
:100E500008000020154910B51548096811F00C026A
:100E600013D04110042A0FD0082A0ED10F4C241F92
:100E70002268236802F03F025B0207D52068C0F3B6
:100E80008810A0FB010106E0084610BD2168C1F3EF
:100E90008811A1FB00010023FFF7B2F92168C1F31B
:100EA0000141491C4900B0FBF1F010BD0838024077
:100EB0000024F4002DE9F84F04004FF000076ED035
:100EC0002078DFF868A3AAF10408C007A8F1040598
:100ED0004CD0DAF800105046C1F38101012908D046
:100EE0000068C0F3810002280AD1D8F8000040024F
:100EF00006D52868800339D560680028DFD035E042
:100F00006068B0F5803F0BD010B1B0F5A02F11D0C4
:100F1000286820F480302860286820F4802002E0CF
:100F2000286840F480302860606890B1FFF792FB39
:100F300006460AE0286840F480202860F0E700BFF9
:100F4000FFF788FB801B642872D828688003F7D5D8
:100F50000CE0FFF77FFB064605E000BFFFF77AFBDA
:100F6000801B6428F0D828688003F7D42078800795
:100F700042D5DAF80010504611F00C0F08D0006886
:100F8000C0F3810002280BD1D8F80000400207D43A
:100F90002868800718D5E068012800D114E041E1F5
:100FA000E0680028286817D040F001002860FFF7AB
:100FB00051FB064605E000BFFFF74CFB801B0228F3
:100FC000C2D828688007F7D52069296821F0F80180
:100FD00041EAC00028600FE020F001002860FFF720
:100FE00039FB064605E000BFFFF734FB801B0228F3
:100FF0001ED828688007F7D42078000729D58B48A9
:1010000061696C3000298146016812D041F001010C
:101010000160FFF71FFB064605E000BFFFF71AFB64
:10102000801B022804D8D9F800008007F6D510E00C
:1010300089E021F001010160FFF70CFB064604E0A6
:10104000FFF708FB801B02287DD8D9F80000800735
:10105000F6D4207840076BD5DFF8D09109F1380934
:10106000D9F80000C0000BD4D9F8001041F080512D
:10107000C9F80010D9F80000012700F08050009056
:101080006B480168C90512D40168834641F4807138
:101090000160FFF7DFFA064605E000BFFFF7DAFA66
:1010A000801B64284FD8DBF80000C005F6D55F4EE2
:1010B000A068683601280AD008B1052811D0306828
:1010C00020F001003060306820F0040002E0306859
:1010D00040F001003060A068A0B1FFF7BBFA834682
:1010E0000CE0306840F004003060F0E7FFF7B2FA3F
:1010F000A0EB0B0141F28830814266D8306880074E
:10110000F4D50EE0FFF7A6FA834607E0FFF7A2FA50
:10111000A0EB0B0141F28830814256D8306880073D
:10112000F4D42FB1D9F8001021F08051C9F8001083
:10113000A069C8B3DAF80010C1F3810102294BD0CD
:101140000228286800E040E020F08070286003D08A
:10115000FFF780FA04463BE0FFF77CFA064604E01E
:10116000FFF778FA801B02282FD828688001F7D46F
:10117000D4E90962D4E907012E4B570894F82C20D2
:10118000084303EB074343EA8611084340EA026041
:1011900040F00050C8F80000286840F080702860D7
:1011A000FFF758FA044606E03EE000BFFFF752FAA8
:1011B000001B022809D828688001F7D534E000BF59
:1011C000FFF748FA001B022802D90320BDE8F88F78
:1011D00028688001F4D427E00128D8F8000021D045
:1011E000E16900F480028A421CD1216A00F03F02CA
:1011F0008A4217D1626A47F6C0710140B1EB821F83
:1012000010D1A16A4FF0FF3200F4403302EB5101DC
:10121000B3EB014F06D194F82C1000F07060B0EBE6
:10122000016F01D00120D1E70020CFE7083802404C
:10123000007000400000FFFF401EB0F1807F10B53D
:1012400001D3012010BD4FF0E02460610F21601731
:1012500000F0C1FA0020A0610721216110BDFEE766
:101260002DE9F04186B014216846FFF701F82A48BD
:10127000016841F010010160016801F01001059161
:10128000016841F004010160016801F00401059169
:10129000016841F080010160016801F08001059161
:1012A000016841F002010160016801F0020105914D
:1012B000016841F008010160016801F00801059131
:1012C000016841F00101016000684FF48056134F3E
:1012D000002200F00100314605903846FFF7B4F9CE
:1012E000DFF83C80002201214046FFF7ADF90024E1
:1012F0000096012569463846CDE901540394FFF76D
:10130000B7F800956946CDE9015440460394FFF7CC
:10131000AFF806B0BDE8F081303802400008024066
:10132000000C0240FEE7704770472DE9F0434B6A1E
:101330004FF040652BB1AA4203D004688B6A5B1E54
:1013400023618B69002B68D00C6AB4B303688C6886
:10135000DC61CC69FCB1D1E90B38D1F824C04E6B0B
:101360008F8A43EA080346EA0C0633430E6A43EACF
:101370008743D1E9037C43EA0C0333438E693B4343
:101380000F682343046833433B4365E000684968C2
:101390008161BDE8F083D1E90B364F6A4C6B8D8AD1
:1013A00033433C430E6923430C6A43EA85438D690A
:1013B0003343096823432B4362E0FFE7CC69B4F170
:1013C000000918D0D1E90B484F6A4E6BB1F814C030
:1013D00044EA08043E430F683443CE6844EA8C4430
:1013E000344344EA09041C4303683C431443AA42BF
:1013F0005C61CBD1CDE7D1E90B464F6A4D6BB1F8BB
:1014000014C034433D4300682C43096844EA8C44CB
:101410001C430C4314434461BBE70B6AABB3036842
:101420008C68DC61CC69E4B1D1E90B38D1F824C017
:101430004E6B8F8A43EA080346EA0C0633430E6A72
:1014400043EA8743D1E9037C43EA0C0333438E69C3
:101450003B432343046833431343AA42636195D15A
:1014600097E7D1E90B364F6A4C6B8D8A33433C4387
:101470000E6923430C6A43EA854389693343234356
:1014800000680B431343436183E7FFE7CC6984B1F2
:10149000D1E90B384F6A4E6BB1F814C043EA080328
:1014A0003E433343CE6843EA8C43334323430468CB
:1014B000D2E74C6A002C9DD0D1E90B368F8A4D6B58
:1014C0000168334325432B4343EA87401043486177
:1014D0005FE730B58FB0054600214FF48074852357
:1014E00000932004069401220591CDE90A21CDE95B
:1014F000081041F288340791224628460C910D913C
:101500006946FFF703FA30BB0EA922462846FFF7CB
:1015100049FB00BB284600F0DDF8E0B9F02081214E
:10152000009190FAA0F29DF838000A21B2FA82F2F6
:1015300020F0F00091400843224669468DF83800BB
:101540002846FFF7E3F930B90EA922462846FFF7EF
:101550008BFB002800D001200FB030BDF0B595B056
:1015600041F288350024012610200E9431020C919E
:1015700081040B941194652213944FF08077CDE988
:101580000441129406A906922A4602900D941F481F
:10159000CDE90F76FFF7BAF9A0BB1C4814A92A467B
:1015A000FFF700FB70BB06200690184806A92A46E4
:1015B0000F94FFF7ABF928BB02200090052106919C
:1015C000019006A911482B466A460F970396FFF72C
:1015D00047F9B8B910966120069006A99DF8500009
:1015E0002A4620F0C00040F040008DF85000074827
:1015F000FFF78CF930B9054814A92A46FFF734FBE8
:10160000002800D0012015B0F0BD0000140000201B
:101610002DE9FC411C4C00254FF4807141F28837C4
:1016200066203A46A4F14C066562A161214620601D
:101630003046FFF76BF918BB99203A4621462060E7
:101640003046FFF763F9D8B93046FFF787FFB8B9DE
:101650003046FFF73EFF98B94FF4407130460A27F5
:1016600067618B000E046662EB222260C4E90613F8
:101670006A46214601950095FFF7E4F9002800D05D
:101680000120BDE8FC810000600000202DE9F04150
:10169000984616460F460446069D08E0681C06D08C
:1016A000FEF7D8FFA0EB0800A8420AD84DB1206889
:1016B0008068384000D00120B042EFD10020BDE862
:1016C000F081042084F84100606C40F00100606407
:1016D0000120F4E770B5124C4FF440720621064623
:1016E000002041F28835A2612A46216021466062CD
:1016F0003046FFF70BF988B904F1380002214FF0AA
:101700004073016005224160214663622B462260DE
:1017100002463046FFF7A4F8002800D0012070BD33
:10172000600000207047FEF79BBF000030B593B00B
:1017300030216846FEF79CFD14210CA8FEF798FDA9
:10174000FFF742F81A48016841F0805101600068D3
:1017500000F0805011901748016841F44041016049
:10176000006802240121009400F4404011901020F0
:1017700000254FF4C872CDE9031008A9CDE906454C
:1017800081E8150068460B94FFF794FBFEF7E6FF2F
:10179000E2024FF4A0510F20CDE90F120CAA06214E
:1017A00082E831000CA8FFF7BDFA13B030BD00008D
:1017B000403802400070004005484FF00061036867
:1017C000034A43F470030360803A116070470000DD
:1017D00088ED00E0FEE7090700284FEA116104DB0D
:1017E00000F1E02080F80014704700F00F0000F1D5
:1017F000E02080F8141D704702E008C8121F08C1DD
:10180000002AFAD170477047002001E001C1121F81
:10181000002AFBD170470000FEF72AFFFFF786FF82
:10182000FFF71EFD164900241648012204234F0D20
:101830001025C0E90574C4611826046280E86E00B2
:10184000FFF7A8F8012210481103FEF7FDFEFEF78E
:1018500087FDFFF7DDFE20B901220C481146FEF797
:10186000F3FEFEF743FD4FF0E0204FF0104104611E
:10187000074A48681060096881F308888047FEE7D6
:10188000001000A01400002000080240000C0240DC
:10189000000000200000000000000000010203041E
:1018A00006070809C4180008000000201400000002
:1018B000F8170008D8180008140000209C04000045
:1018C00008180008000000000100000010000000DF
:0818D000000000000024F400F8
:04000005080001C925
:00000001FF
